:100000000C9462000C948A000C948A000C948A0070
:100010000C948A000C948A000C948A000C948A0038
:100020000C948A000C948A000C948A000C948A0028
:100030000C948A000C948A000C948A000C948A0018
:100040000C944C010C948A000C94EC020C943A032E
:100050000C948A000C948A000C948A000C948A00F8
:100060000C948A000C948A000000000024002700F1
:100070002A0000000000250028002B0000000000DE
:1000800023002600290004040404040404040202DA
:100090000202020203030303030301020408102007
:1000A0004080010204081020010204081020000012
:1000B0000007000201000003040600000000000029
:1000C0000000A60411241FBECFEFD8E0DEBFCDBFD5
:1000D00011E0A0E0B1E0E2EEFCE002C005900D927C
:1000E000A033B107D9F711E0A0E3B1E001C01D9240
:1000F000AC3EB107E1F710E0C4ECD0E004C02297B9
:10010000FE010E946B06C23CD107C9F70E94FC04A5
:100110000C946F060C940000CF92DF92EF92FF9246
:100120000F931F9380E00E9436027C0181E00E94C1
:1001300036026C010E9494010AEC11E0209130011A
:10014000309131014091320150913301621B730BA8
:10015000840B950B28EE33E040E050E00E94470608
:10016000C801B9014AE050E00E94E405C80160E01E
:1001700071E00E941206C801B7014AE050E00E94F7
:10018000F505C801B6014AE050E00E94F5051F914F
:100190000F91FF90EF90DF90CF90089588E061E09D
:1001A0000E949702109238010E9494016057704A91
:1001B0008E4F9F4F609334017093350180933601C9
:1001C00090933701089588E060E00E94970281E0F3
:1001D000809338010E949401605A75418F4F9F4F60
:1001E0006093340170933501809336019093370109
:1001F000089580913801882391F00E949401209104
:100200003401309135014091360150913701261764
:10021000370748075907A0F40E94CE0011C00E947A
:100220009401209134013091350140913601509173
:100230003701261737074807590710F40E94E300D3
:100240000E948C0068EE73E080E090E00E94A201C2
:1002500008950F931F930AEC11E0C80140E45EE596
:1002600062E070E00E94750388E061E00E9458023D
:100270000E949401609330017093310180933201A8
:10028000909333010E94E300C80162E071E00E9494
:1002900015061F910F9108951F920F920FB60F929E
:1002A00011242F933F938F939F93AF93BF9380918C
:1002B0003D0190913E01A0913F01B09140013091EC
:1002C00041010196A11DB11D232F2D5F2D3720F077
:1002D0002D570196A11DB11D2093410180933D0131
:1002E00090933E01A0933F01B0934001809139016A
:1002F00090913A01A0913B01B0913C010196A11D62
:10030000B11D8093390190933A01A0933B01B093C2
:100310003C01BF91AF919F918F913F912F910F9091
:100320000FBE0F901F9018958FB7F89420913D0144
:1003300030913E0140913F01509140018FBFB90182
:10034000CA0108959B01AC017FB7F89480913901EF
:1003500090913A01A0913B01B0913C0166B5A89BF8
:1003600005C06F3F19F00196A11DB11D7FBFBA2FC7
:10037000A92F982F8827860F911DA11DB11D62E01E
:10038000880F991FAA1FBB1F6A95D1F7BC012DC00A
:10039000FFB7F8948091390190913A01A0913B0107
:1003A000B0913C01E6B5A89B05C0EF3F19F001965E
:1003B000A11DB11DFFBFBA2FA92F982F88278E0F1F
:1003C000911DA11DB11DE2E0880F991FAA1FBB1F3F
:1003D000EA95D1F7861B970B885E9340C8F22150AF
:1003E00030404040504068517C4F21153105410557
:1003F000510571F60895789484B5826084BD84B502
:10040000816084BD85B5826085BD85B5816085BD0F
:10041000EEE6F0E0808181608083E1E8F0E0108228
:10042000808182608083808181608083E0E8F0E069
:10043000808181608083E1EBF0E080818460808353
:10044000E0EBF0E0808181608083EAE7F0E080818A
:1004500084608083808182608083808181608083EA
:100460008081806880831092C1000895982F8E301B
:1004700008F09E50977080911E018295880F880F1A
:10048000807C892B80937C0080917A0080648093AB
:100490007A0080917A0086FDFCCF2091780040910F
:1004A0007900942F80E030E0282B392BC901089582
:1004B000CF93DF93482F50E0CA0186569F4FFC012F
:1004C00034914A575F4FFA018491882369F190E093
:1004D000880F991FFC01E859FF4FA591B491FC01C9
:1004E000EE58FF4FC591D491662351F42FB7F8947D
:1004F0008C91932F909589238C93888189230BC0AD
:10050000623061F42FB7F8948C91932F90958923E2
:100510008C938881832B88832FBF06C09FB7F89464
:100520008C91832B8C939FBFDF91CF910895482F9F
:1005300050E0CA0182559F4FFC012491CA018656A2
:100540009F4FFC0194914A575F4FFA013491332336
:1005500009F440C0222351F1233071F0243028F4F3
:100560002130A1F0223011F514C02630B1F027302F
:10057000C1F02430D9F404C0809180008F7703C08B
:10058000809180008F7D8093800010C084B58F772C
:1005900002C084B58F7D84BD09C08091B0008F7783
:1005A00003C08091B0008F7D8093B000E32FF0E016
:1005B000EE0FFF1FEE58FF4FA591B4912FB7F8949F
:1005C000662321F48C919095892302C08C91892B0C
:1005D0008C932FBF089508951F920F920FB60F921C
:1005E00011242F933F934F938F939F93EF93FF93F8
:1005F0008091C00082FD1DC04091C6002091820103
:10060000309183012F5F3F4F2F73307080918401B1
:10061000909185012817390771F0E0918201F091DE
:100620008301EE5BFE4F4083309383012093820170
:1006300002C08091C600FF91EF919F918F914F91E1
:100640003F912F910F900FBE0F901F901895E09142
:10065000D601F091D701E05CFF4F8191919120810B
:100660003181821B930B8F739070892B11F00E9444
:10067000EB0208951F920F920FB60F9211242F9341
:100680003F938F939F93EF93FF932091C6013091F7
:10069000C7018091C8019091C9012817390731F429
:1006A0008091C1008F7D8093C10014C0E091C8018A
:1006B000F091C901EA57FE4F20818091C8019091C5
:1006C000C90101968F7390709093C9018093C801FE
:1006D0002093C600FF91EF919F918F913F912F91B1
:1006E0000F900FBE0F901F901895AF92BF92DF92A0
:1006F000EF92FF920F931F93CF93DF93EC017A0158
:100700008B01DD24403081EE580780E0680780E0EF
:10071000780711F0DD24D39491E0A92EB12CEC8957
:10072000FD89DD2069F0C50108A002C0880F991F6E
:100730000A94E2F7808360E079E08DE390E005C001
:10074000108260E874E88EE190E0A80197010E94B1
:1007500047062150304040405040569547953795C8
:10076000279580E12030380720F0DD2011F0DD24CE
:10077000D6CFE889F9893083EA89FB89208319A2D9
:10078000EE89FF89408121E030E0C9010C8C02C074
:10079000880F991F0A94E2F7482B4083EE89FF895E
:1007A0004081C9010D8C02C0880F991F0A94E2F79D
:1007B000482B4083EE89FF894081C9010E8C02C01D
:1007C000880F991F0A94E2F7482B4083EE89FF892E
:1007D00080810F8C02C0220F331F0A94E2F720950C
:1007E00028232083DF91CF911F910F91FF90EF90ED
:1007F000DF90BF90AF900895DC011C96ED91FC91C5
:100800001D97E05CFF4F2191319180819181281BE0
:10081000390B2F733070C9010895DC011C96ED91DE
:10082000FC911D97E05CFF4F20813181E054F04046
:10083000DF01AE5BBF4F8D919C911197281739074F
:1008400019F42FEF3FEF07C08D919C91E80FF91F2E
:100850008081282F30E0C9010895DC011C96ED91BC
:10086000FC911D97E05CFF4F20813181E054F04006
:10087000DF01AE5BBF4F8D919C911197281739070F
:1008800019F42FEF3FEF10C08D919C911197E80F55
:10089000F91F20818D919C91119701968F73907013
:1008A00011969C938E9330E0C9010895DC019196D6
:1008B0008C919197882339F05496ED91FC9155973E
:1008C000808186FFF9CF91961C920895CF93DF9394
:1008D000EC01EE85FF85E05CFF4F20813181E05423
:1008E000F0402F5F3F4F2F733070DF01AE5BBF4F83
:1008F0008D919C91119728173907D1F3E05CFF4F38
:1009000080819181E054F040E80FF91F6083EE850B
:10091000FF85E05CFF4F31832083EE89FF892081D2
:1009200081E090E00F8C02C0880F991F0A94E2F7D3
:10093000282B208381E089A3EC89FD898081806454
:10094000808381E090E0DF91CF9108951092CD01F6
:100950001092CC0188EE93E0A0E0B0E08093CE014D
:100960009093CF01A093D001B093D10183E291E0A5
:100970009093CB018093CA0182E491E09093D701D8
:100980008093D60186E891E09093D9018093D801B5
:1009900085EC90E09093DB018093DA0184EC90E0A9
:1009A0009093DD018093DC0180EC90E09093DF0177
:1009B0008093DE0181EC90E09093E1018093E0016F
:1009C00082EC90E09093E3018093E20186EC90E06A
:1009D0009093E5018093E40184E08093E60183E055
:1009E0008093E70187E08093E80185E08093E90147
:1009F00081E08093EA010895CF93DF930E94FB0189
:100A00000E942901C7E2D3E00E94F9002097E1F398
:100A10000E942703F9CFCF92DF92EF92FF920F93BC
:100A20001F93CF93DF937C016B018A01C0E0D0E07C
:100A30000FC0D6016D916D01D701ED91FC91019030
:100A4000F081E02DC7010995C80FD91F0150104052
:100A50000115110571F7CE01DF91CF911F910F9113
:100A6000FF90EF90DF90CF900895EF92FF920F9359
:100A70001F938C01DC01ED91FC910190F081E02D40
:100A80006DE009957C01D801ED91FC910190F08118
:100A9000E02DC8016AE009959C012E0D3F1DC9019A
:100AA0001F910F91FF90EF900895CF93DF93EC018A
:100AB0006115710519F420E030E00FC0DB010D90E5
:100AC0000020E9F71197A61BB70BE881F981028096
:100AD000F381E02DAD0109959C01C901DF91CF9112
:100AE00008954F925F927F928F929F92AF92BF92A2
:100AF000CF92DF92EF92FF920F931F93DF93CF93EA
:100B0000CDB7DEB7A1970FB6F894DEBF0FBECDBF4D
:100B10002C01742ECB01223008F42AE019A231E214
:100B2000C32ED12CCC0EDD1E822E9924AA24BB24E8
:100B3000672D752FA50194010E94470679018A014E
:100B4000C801B701A50194010E942806472D461B44
:100B50000894C108D1084A3014F4405D01C0495CD2
:100B6000F6014083E114F1040105110521F07E2C0A
:100B70005F2DC801DDCFC201B6010E945505A196C7
:100B80000FB6F894DEBF0FBECDBFCF91DF911F919E
:100B90000F91FF90EF90DF90CF90BF90AF909F901C
:100BA0008F907F905F904F900895DC012115310563
:100BB00041F4ED91FC910190F081E02D642F0995B5
:100BC00008950E9471050895EF92FF920F931F936D
:100BD0009A017B0100E010E0B801A7010E94D50551
:100BE0001F910F91FF90EF900895CF92DF92EF92B7
:100BF000FF920F931F936C017B019A0100E010E0BC
:100C0000B801A7010E94D5058C01C6010E943505D7
:100C1000080F191FC8011F910F91FF90EF90DF90EF
:100C2000CF9008950E9455050895EF92FF920F937B
:100C30001F937C010E9455058C01C7010E94350558
:100C4000080F191FC8011F910F91FF90EF90089591
:100C5000629FD001739FF001829FE00DF11D649FA0
:100C6000E00DF11D929FF00D839FF00D749FF00D2C
:100C7000659FF00D9927729FB00DE11DF91F639FCD
:100C8000B00DE11DF91FBD01CF0111240895A1E2AE
:100C90001A2EAA1BBB1BFD010DC0AA1FBB1FEE1FF6
:100CA000FF1FA217B307E407F50720F0A21BB30B41
:100CB000E40BF50B661F771F881F991F1A9469F7BD
:100CC00060957095809590959B01AC01BD01CF0119
:100CD0000895EE0FFF1F0590F491E02D0994F8940C
:020CE000FFCF44
:100CE2002C00456C61707365642054696D65202821
:100CF20073292C20476173204C6576656C000100D6
:100D020000000066040B05FC032D040D04560400CC
:00000001FF
