:100000000C9462000C948A000C948A000C948A0070
:100010000C948A000C948A000C948A000C948A0038
:100020000C948A000C948A000C948A000C948A0028
:100030000C948A000C948A000C948A000C948A0018
:100040000C94C1000C948A000C9453020C94A102ED
:100050000C948A000C948A000C948A000C948A00F8
:100060000C948A000C948A000000000024002700F1
:100070002A0000000000250028002B0000000000DE
:1000800023002600290004040404040404040202DA
:100090000202020203030303030301020408102007
:1000A0004080010204081020010204081020000012
:1000B0000007000201000003040600000000000029
:1000C00000000D0411241FBECFEFD8E0DEBFCDBF6E
:1000D00011E0A0E0B1E0EEECFBE002C005900D9273
:1000E000AC31B107D9F711E0ACE1B1E001C01D922C
:1000F000A13DB107E1F710E0C4ECD0E004C02297C5
:10010000FE010E94E105C23CD107C9F70E946304C9
:100110000C94E5050C9400008EE00E949D019093E4
:100120001D0180931C018E5E92401CF08DE061E009
:1001300002C08DE060E00E94FE018FEA91E060E085
:1001400071E00E949B0560911C0170911D018FEA76
:1001500091E04AE050E00E947C056AE070E080E0B7
:1001600090E00E94090108958FEA91E040E855E28D
:1001700060E070E00E94DC028DE061E00E94BF015F
:1001800008951F920F920FB60F9211242F933F9351
:100190008F939F93AF93BF938091220190912301FE
:1001A000A0912401B0912501309126010196A11D55
:1001B000B11D232F2D5F2D3720F02D570196A11D46
:1001C000B11D209326018093220190932301A093D7
:1001D0002401B093250180911E0190911F01A091EF
:1001E0002001B09121010196A11DB11D80931E0136
:1001F00090931F01A0932001B0932101BF91AF9173
:100200009F918F913F912F910F900FBE0F901F9054
:1002100018959B01AC017FB7F89480911E019091D5
:100220001F01A0912001B091210166B5A89B05C0D6
:100230006F3F19F00196A11DB11D7FBFBA2FA92FE5
:10024000982F8827860F911DA11DB11D62E0880F90
:10025000991FAA1FBB1F6A95D1F7BC012DC0FFB71C
:10026000F89480911E0190911F01A0912001B091FE
:100270002101E6B5A89B05C0EF3F19F00196A11D2D
:10028000B11DFFBFBA2FA92F982F88278E0F911D60
:10029000A11DB11DE2E0880F991FAA1FBB1FEA959F
:1002A000D1F7861B970B885E9340C8F221503040EF
:1002B0004040504068517C4F2115310541055105A2
:1002C00071F60895789484B5826084BD84B58160A8
:1002D00084BD85B5826085BD85B5816085BDEEE64E
:1002E000F0E0808181608083E1E8F0E0108280812D
:1002F00082608083808181608083E0E8F0E080819B
:1003000081608083E1EBF0E0808184608083E0EBBA
:10031000F0E0808181608083EAE7F0E080818460A2
:1003200080838081826080838081816080838081FE
:10033000806880831092C1000895982F8E3008F055
:100340009E50977080910A018295880F880F807C5B
:10035000892B80937C0080917A00806480937A005E
:1003600080917A0086FDFCCF209178004091790041
:10037000942F80E030E0282B392BC9010895CF93CA
:10038000DF93482F50E0CA0186569F4FFC013491FD
:100390004A575F4FFA018491882369F190E0880FF2
:1003A000991FFC01E859FF4FA591B491FC01EE584B
:1003B000FF4FC591D491662351F42FB7F8948C91D7
:1003C000932F909589238C93888189230BC0623069
:1003D00061F42FB7F8948C91932F909589238C9387
:1003E0008881832B88832FBF06C09FB7F8948C9198
:1003F000832B8C939FBFDF91CF910895482F50E0BE
:10040000CA0182559F4FFC012491CA0186569F4F15
:10041000FC0194914A575F4FFA013491332309F458
:1004200040C0222351F1233071F0243028F42130D0
:10043000A1F0223011F514C02630B1F02730C1F000
:100440002430D9F404C0809180008F7703C080915C
:1004500080008F7D8093800010C084B58F7702C0AC
:1004600084B58F7D84BD09C08091B0008F7703C0B3
:100470008091B0008F7D8093B000E32FF0E0EE0F0D
:10048000FF1FEE58FF4FA591B4912FB7F894662344
:1004900021F48C919095892302C08C91892B8C93A7
:1004A0002FBF089508951F920F920FB60F92112437
:1004B0002F933F934F938F939F93EF93FF9380914D
:1004C000C00082FD1DC04091C6002091670130919F
:1004D00068012F5F3F4F2F733070809169019091B9
:1004E0006A012817390771F0E0916701F0916801FE
:1004F000E95DFE4F4083309368012093670102C09D
:100500008091C600FF91EF919F918F914F913F9104
:100510002F910F900FBE0F901F901895E091BB0187
:10052000F091BC01E05CFF4F81919191208131817C
:10053000821B930B8F739070892B11F00E945202D3
:1005400008951F920F920FB60F9211242F933F938D
:100550008F939F93EF93FF932091AB013091AC0168
:100560008091AD019091AE012817390731F4809147
:10057000C1008F7D8093C10014C0E091AD01F09166
:10058000AE01E559FE4F20818091AD019091AE0101
:1005900001968F7390709093AE018093AD0120937C
:1005A000C600FF91EF919F918F913F912F910F90F6
:1005B0000FBE0F901F901895AF92BF92DF92EF92EF
:1005C000FF920F931F93CF93DF93EC017A018B017E
:1005D000DD24403081EE580780E0680780E078072E
:1005E00011F0DD24D39491E0A92EB12CEC89FD8982
:1005F000DD2069F0C50108A002C0880F991F0A9488
:10060000E2F7808360E079E08DE390E005C010823E
:1006100060E874E88EE190E0A80197010E94BD05B2
:10062000215030404040504056954795379527958A
:1006300080E12030380720F0DD2011F0DD24D6CF16
:10064000E889F9893083EA89FB89208319A2EE8938
:10065000FF89408121E030E0C9010C8C02C0880F85
:10066000991F0A94E2F7482B4083EE89FF89408165
:10067000C9010D8C02C0880F991F0A94E2F7482B1C
:100680004083EE89FF894081C9010E8C02C0880F2A
:10069000991F0A94E2F7482B4083EE89FF898081F5
:1006A0000F8C02C0220F331F0A94E2F720952823F3
:1006B0002083DF91CF911F910F91FF90EF90DF90FA
:1006C000BF90AF900895DC011C96ED91FC911D97B1
:1006D000E05CFF4F2191319180819181281B390B82
:1006E0002F733070C9010895DC011C96ED91FC91C7
:1006F0001D97E05CFF4F20813181E054F040DF0125
:10070000AE5BBF4F8D919C9111972817390719F453
:100710002FEF3FEF07C08D919C91E80FF91F80816B
:10072000282F30E0C9010895DC011C96ED91FC9161
:100730001D97E05CFF4F20813181E054F040DF01E4
:10074000AE5BBF4F8D919C9111972817390719F413
:100750002FEF3FEF10C08D919C911197E80FF91F7B
:1007600020818D919C91119701968F7390701196B5
:100770009C938E9330E0C9010895DC0191968C9191
:100780009197882339F05496ED91FC91559780818B
:1007900086FFF9CF91961C920895CF93DF93EC01D9
:1007A000EE85FF85E05CFF4F20813181E054F04011
:1007B0002F5F3F4F2F733070DF01AE5BBF4F8D91C6
:1007C0009C91119728173907D1F3E05CFF4F808186
:1007D0009181E054F040E80FF91F6083EE85FF85BA
:1007E000E05CFF4F31832083EE89FF89208181E027
:1007F00090E00F8C02C0880F991F0A94E2F7282B13
:10080000208381E089A3EC89FD89808180648083D5
:1008100081E090E0DF91CF9108951092B2011092A3
:10082000B10188EE93E0A0E0B0E08093B301909333
:10083000B401A093B501B093B6018FE091E090931D
:10084000B0018093AF0187E291E09093BC01809367
:10085000BB018BE691E09093BE018093BD0185ECD6
:1008600090E09093C0018093BF0184EC90E090935E
:10087000C2018093C10180EC90E09093C401809309
:10088000C30181EC90E09093C6018093C50182EC96
:1008900090E09093C8018093C70186EC90E090931C
:1008A000CA018093C90184E08093CB0183E08093E7
:1008B000CC0187E08093CD0185E08093CE0181E07B
:1008C0008093CF010895CF93DF930E9462010E942D
:1008D000B400CEE8D2E00E948C002097E1F30E94A1
:1008E0008E02F9CFCF92DF92EF92FF920F931F9378
:1008F000CF93DF937C016B018A01C0E0D0E00FC091
:10090000D6016D916D01D701ED91FC910190F081BF
:10091000E02DC7010995C80FD91F015010400115DE
:10092000110571F7CE01DF91CF911F910F91FF90CB
:10093000EF90DF90CF900895EF92FF920F931F9367
:100940008C01DC01ED91FC910190F081E02D6DE0D6
:1009500009957C01D801ED91FC910190F081E02D89
:10096000C8016AE009959C012E0D3F1DC9011F9128
:100970000F91FF90EF900895CF93DF93EC016115F5
:10098000710519F420E030E00FC0DB010D9000206C
:10099000E9F71197A61BB70BE881F9810280F38173
:1009A000E02DAD0109959C01C901DF91CF9108951A
:1009B0004F925F927F928F929F92AF92BF92CF920F
:1009C000DF92EF92FF920F931F93DF93CF93CDB7F8
:1009D000DEB7A1970FB6F894DEBF0FBECDBF2C01D6
:1009E000742ECB01223008F42AE019A231E2C32E82
:1009F000D12CCC0EDD1E822E9924AA24BB24672D77
:100A0000752FA50194010E94BD0579018A01C801D5
:100A1000B701A50194010E949E05472D461B08942D
:100A2000C108D1084A3014F4405D01C0495CF601A8
:100A30004083E114F1040105110521F07E2C5F2DA6
:100A4000C801DDCFC201B6010E94BC04A1960FB659
:100A5000F894DEBF0FBECDBFCF91DF911F910F91F4
:100A6000FF90EF90DF90CF90BF90AF909F908F90CE
:100A70007F905F904F900895CF92DF92EF92FF9218
:100A80000F931F93CF93DF93EC016A017B01211534
:100A9000310541F4E881F9810190F081E02D642F66
:100AA00009951FC02A303105D1F477FF17C0E881BE
:100AB000F9810190F081E02D6DE209958C014427C8
:100AC0005527BA014C195D096E097F09CE012AE04C
:100AD0000E94D8049801280F391F04C02AE00E9400
:100AE000D8049C01C901DF91CF911F910F91FF9014
:100AF000EF90DF90CF900895CF92DF92EF92FF9228
:100B00000F931F936C017B019A010027F7FC00955E
:100B1000102FB801A7010E943C058C01C6010E945C
:100B20009C04080F191FC8011F910F91FF90EF90AF
:100B3000DF90CF9008950E94BC040895629FD00179
:100B4000739FF001829FE00DF11D649FE00DF11D88
:100B5000929FF00D839FF00D749FF00D659FF00D37
:100B60009927729FB00DE11DF91F639FB00DE11D24
:100B7000F91FBD01CF0111240895A1E21A2EAA1B6D
:100B8000BB1BFD010DC0AA1FBB1FEE1FFF1FA2173D
:100B9000B307E407F50720F0A21BB30BE40BF50B3A
:100BA000661F771F881F991F1A9469F760957095C3
:100BB000809590959B01AC01BD01CF010895EE0F8A
:0E0BC000FF1F0590F491E02D0994F894FFCFEB
:100BCE0073656E736F72203D20000100000000CD32
:0C0BDE00037204630394037403BD03005E
:00000001FF
